{"contracts/CommitRevealLottery.sol":{"CommitRevealLottery":{"abi":[{"inputs":[],"stateMutability":"nonpayable","type":"constructor"},{"inputs":[],"name":"DURATION","outputs":[{"internalType":"uint256","name":"","type":"uint256"}],"stateMutability":"view","type":"function"},{"inputs":[],"name":"commitCloses","outputs":[{"internalType":"uint256","name":"","type":"uint256"}],"stateMutability":"view","type":"function"},{"inputs":[{"internalType":"address","name":"","type":"address"}],"name":"commitments","outputs":[{"internalType":"bytes32","name":"","type":"bytes32"}],"stateMutability":"view","type":"function"},{"inputs":[{"internalType":"uint256","name":"secret","type":"uint256"}],"name":"createCommitment","outputs":[{"internalType":"bytes32","name":"","type":"bytes32"}],"stateMutability":"view","type":"function"},{"inputs":[{"internalType":"bytes32","name":"commitment","type":"bytes32"}],"name":"enter","outputs":[],"stateMutability":"payable","type":"function"},{"inputs":[],"name":"getBalance","outputs":[{"internalType":"uint256","name":"","type":"uint256"}],"stateMutability":"view","type":"function"},{"inputs":[],"name":"isAlreadyRevealed","outputs":[{"internalType":"bool","name":"","type":"bool"}],"stateMutability":"view","type":"function"},{"inputs":[{"internalType":"uint256","name":"","type":"uint256"}],"name":"lotteryHistory","outputs":[{"internalType":"address","name":"","type":"address"}],"stateMutability":"view","type":"function"},{"inputs":[],"name":"lotteryId","outputs":[{"internalType":"uint256","name":"","type":"uint256"}],"stateMutability":"view","type":"function"},{"inputs":[],"name":"pickWinner","outputs":[],"stateMutability":"nonpayable","type":"function"},{"inputs":[{"internalType":"uint256","name":"","type":"uint256"}],"name":"players","outputs":[{"internalType":"address","name":"","type":"address"}],"stateMutability":"view","type":"function"},{"inputs":[{"internalType":"uint256","name":"secret","type":"uint256"}],"name":"reveal","outputs":[],"stateMutability":"nonpayable","type":"function"},{"inputs":[],"name":"revealCloses","outputs":[{"internalType":"uint256","name":"","type":"uint256"}],"stateMutability":"view","type":"function"},{"inputs":[],"name":"winner","outputs":[{"internalType":"address","name":"","type":"address"}],"stateMutability":"view","type":"function"},{"inputs":[],"name":"withdrawPrize","outputs":[],"stateMutability":"nonpayable","type":"function"}],"evm":{"bytecode":{"linkReferences":{},"object":"60806040523480156200001157600080fd5b506004436200002191906200007d565b60008190555060046000546200003891906200007d565b600181905550620000da565b6000819050919050565b7f4e487b7100000000000000000000000000000000000000000000000000000000600052601160045260246000fd5b60006200008a8262000044565b9150620000978362000044565b9250827fffffffffffffffffffffffffffffffffffffffffffffffffffffffffffffffff03821115620000cf57620000ce6200004e565b5b828201905092915050565b6115f180620000ea6000396000f3fe6080604052600436106100e85760003560e01c80636d6fe2301161008a578063e580f47b11610059578063e580f47b1461029f578063e8fcf723146102ca578063eb88d68814610307578063f71d96cb14610344576100e8565b80636d6fe230146101e3578063bcef097e14610220578063c2ca0ac51461024b578063dfbf53ae14610274576100e8565b80634373fde5116100c65780634373fde51461016e57806348d37a5814610199578063568ab21e146101b05780635d495aea146101cc576100e8565b806312065fe0146100ed5780631be0528914610118578063216af0b414610143575b600080fd5b3480156100f957600080fd5b50610102610381565b60405161010f9190610c8b565b60405180910390f35b34801561012457600080fd5b5061012d610389565b60405161013a9190610c8b565b60405180910390f35b34801561014f57600080fd5b5061015861038e565b6040516101659190610cc1565b60405180910390f35b34801561017a57600080fd5b50610183610436565b6040516101909190610c8b565b60405180910390f35b3480156101a557600080fd5b506101ae61043c565b005b6101ca60048036038101906101c59190610d17565b610681565b005b3480156101d857600080fd5b506101e1610756565b005b3480156101ef57600080fd5b5061020a60048036038101906102059190610d70565b61094f565b6040516102179190610dde565b60405180910390f35b34801561022c57600080fd5b50610235610982565b6040516102429190610c8b565b60405180910390f35b34801561025757600080fd5b50610272600480360381019061026d9190610d70565b610988565b005b34801561028057600080fd5b50610289610b7f565b6040516102969190610dde565b60405180910390f35b3480156102ab57600080fd5b506102b4610ba5565b6040516102c19190610c8b565b60405180910390f35b3480156102d657600080fd5b506102f160048036038101906102ec9190610e25565b610bab565b6040516102fe9190610e61565b60405180910390f35b34801561031357600080fd5b5061032e60048036038101906103299190610d70565b610bc3565b60405161033b9190610e61565b60405180910390f35b34801561035057600080fd5b5061036b60048036038101906103669190610d70565b610bf5565b6040516103789190610dde565b60405180910390f35b600047905090565b600481565b6000805b60038054905081101561042d57600381815481106103b3576103b2610e7c565b5b9060005260206000200160009054906101000a900473ffffffffffffffffffffffffffffffffffffffff1673ffffffffffffffffffffffffffffffffffffffff163373ffffffffffffffffffffffffffffffffffffffff160361041a576001915050610433565b808061042590610eda565b915050610392565b50600090505b90565b60015481565b600460009054906101000a900473ffffffffffffffffffffffffffffffffffffffff1673ffffffffffffffffffffffffffffffffffffffff163373ffffffffffffffffffffffffffffffffffffffff16146104cc576040517f08c379a00000000000000000000000000000000000000000000000000000000081526004016104c390610f7f565b60405180910390fd5b600460006101000a81549073ffffffffffffffffffffffffffffffffffffffff021916905560005b60038054905081101561059557600660006003838154811061051957610518610e7c565b5b9060005260206000200160009054906101000a900473ffffffffffffffffffffffffffffffffffffffff1673ffffffffffffffffffffffffffffffffffffffff1673ffffffffffffffffffffffffffffffffffffffff16815260200190815260200160002060009055808061058d90610eda565b9150506104f4565b50600360006105a49190610c34565b6005600090556004436105b79190610f9f565b60008190555060046000546105cc9190610f9f565b60018190555060003373ffffffffffffffffffffffffffffffffffffffff16476040516105f890611026565b60006040518083038185875af1925050503d8060008114610635576040519150601f19603f3d011682016040523d82523d6000602084013e61063a565b606091505b505090508061067e576040517f08c379a000000000000000000000000000000000000000000000000000000000815260040161067590611087565b60405180910390fd5b50565b662386f26fc100003410156106cb576040517f08c379a00000000000000000000000000000000000000000000000000000000081526004016106c290611119565b60405180910390fd5b600054431061070f576040517f08c379a000000000000000000000000000000000000000000000000000000000815260040161070690611185565b60405180910390fd5b80600660003373ffffffffffffffffffffffffffffffffffffffff1673ffffffffffffffffffffffffffffffffffffffff1681526020019081526020016000208190555050565b60015443101561079b576040517f08c379a0000000000000000000000000000000000000000000000000000000008152600401610792906111f1565b60405180910390fd5b600073ffffffffffffffffffffffffffffffffffffffff16600460009054906101000a900473ffffffffffffffffffffffffffffffffffffffff1673ffffffffffffffffffffffffffffffffffffffff161461082c576040517f08c379a00000000000000000000000000000000000000000000000000000000081526004016108239061125d565b60405180910390fd5b6003808054905060055460001c61084391906112ac565b8154811061085457610853610e7c565b5b9060005260206000200160009054906101000a900473ffffffffffffffffffffffffffffffffffffffff16600460006101000a81548173ffffffffffffffffffffffffffffffffffffffff021916908373ffffffffffffffffffffffffffffffffffffffff160217905550600460009054906101000a900473ffffffffffffffffffffffffffffffffffffffff1660076000600254815260200190815260200160002060006101000a81548173ffffffffffffffffffffffffffffffffffffffff021916908373ffffffffffffffffffffffffffffffffffffffff1602179055506002600081548092919061094890610eda565b9190505550565b60076020528060005260406000206000915054906101000a900473ffffffffffffffffffffffffffffffffffffffff1681565b60005481565b6000544310156109cd576040517f08c379a00000000000000000000000000000000000000000000000000000000081526004016109c49061134f565b60405180910390fd5b6001544310610a11576040517f08c379a0000000000000000000000000000000000000000000000000000000008152600401610a08906113e1565b60405180910390fd5b610a1961038e565b15610a59576040517f08c379a0000000000000000000000000000000000000000000000000000000008152600401610a509061144d565b60405180910390fd5b6000610a6482610bc3565b9050600660003373ffffffffffffffffffffffffffffffffffffffff1673ffffffffffffffffffffffffffffffffffffffff168152602001908152602001600020548114610ae7576040517f08c379a0000000000000000000000000000000000000000000000000000000008152600401610ade906114b9565b60405180910390fd5b60055482604051602001610afc92919061151b565b604051602081830303815290604052805190602001206005819055506003339080600181540180825580915050600190039060005260206000200160009091909190916101000a81548173ffffffffffffffffffffffffffffffffffffffff021916908373ffffffffffffffffffffffffffffffffffffffff1602179055505050565b600460009054906101000a900473ffffffffffffffffffffffffffffffffffffffff1681565b60025481565b60066020528060005260406000206000915090505481565b60003382604051602001610bd892919061158f565b604051602081830303815290604052805190602001209050919050565b60038181548110610c0557600080fd5b906000526020600020016000915054906101000a900473ffffffffffffffffffffffffffffffffffffffff1681565b5080546000825590600052602060002090810190610c529190610c55565b50565b5b80821115610c6e576000816000905550600101610c56565b5090565b6000819050919050565b610c8581610c72565b82525050565b6000602082019050610ca06000830184610c7c565b92915050565b60008115159050919050565b610cbb81610ca6565b82525050565b6000602082019050610cd66000830184610cb2565b92915050565b600080fd5b6000819050919050565b610cf481610ce1565b8114610cff57600080fd5b50565b600081359050610d1181610ceb565b92915050565b600060208284031215610d2d57610d2c610cdc565b5b6000610d3b84828501610d02565b91505092915050565b610d4d81610c72565b8114610d5857600080fd5b50565b600081359050610d6a81610d44565b92915050565b600060208284031215610d8657610d85610cdc565b5b6000610d9484828501610d5b565b91505092915050565b600073ffffffffffffffffffffffffffffffffffffffff82169050919050565b6000610dc882610d9d565b9050919050565b610dd881610dbd565b82525050565b6000602082019050610df36000830184610dcf565b92915050565b610e0281610dbd565b8114610e0d57600080fd5b50565b600081359050610e1f81610df9565b92915050565b600060208284031215610e3b57610e3a610cdc565b5b6000610e4984828501610e10565b91505092915050565b610e5b81610ce1565b82525050565b6000602082019050610e766000830184610e52565b92915050565b7f4e487b7100000000000000000000000000000000000000000000000000000000600052603260045260246000fd5b7f4e487b7100000000000000000000000000000000000000000000000000000000600052601160045260246000fd5b6000610ee582610c72565b91507fffffffffffffffffffffffffffffffffffffffffffffffffffffffffffffffff8203610f1757610f16610eab565b5b600182019050919050565b600082825260208201905092915050565b7f596f75277265206e6f74207468652077696e6e65720000000000000000000000600082015250565b6000610f69601583610f22565b9150610f7482610f33565b602082019050919050565b60006020820190508181036000830152610f9881610f5c565b9050919050565b6000610faa82610c72565b9150610fb583610c72565b9250827fffffffffffffffffffffffffffffffffffffffffffffffffffffffffffffffff03821115610fea57610fe9610eab565b5b828201905092915050565b600081905092915050565b50565b6000611010600083610ff5565b915061101b82611000565b600082019050919050565b600061103182611003565b9150819050919050565b7f4661696c656420746f2073656e6420457468657220746f2077696e6e65720000600082015250565b6000611071601e83610f22565b915061107c8261103b565b602082019050919050565b600060208201905081810360008301526110a081611064565b9050919050565b7f6d73672e76616c75652073686f756c642062652067726561746572207468616e60008201527f206f7220657175616c20746f20302e3031206574686572000000000000000000602082015250565b6000611103603783610f22565b915061110e826110a7565b604082019050919050565b60006020820190508181036000830152611132816110f6565b9050919050565b7f636f6d6d6974206475726174696f6e206973206f766572000000000000000000600082015250565b600061116f601783610f22565b915061117a82611139565b602082019050919050565b6000602082019050818103600083015261119e81611162565b9050919050565b7f4e6f742079657420746f207069636b2077696e6e657200000000000000000000600082015250565b60006111db601683610f22565b91506111e6826111a5565b602082019050919050565b6000602082019050818103600083015261120a816111ce565b9050919050565b7f77696e6e657220697320616c7265616479207365740000000000000000000000600082015250565b6000611247601583610f22565b915061125282611211565b602082019050919050565b600060208201905081810360008301526112768161123a565b9050919050565b7f4e487b7100000000000000000000000000000000000000000000000000000000600052601260045260246000fd5b60006112b782610c72565b91506112c283610c72565b9250826112d2576112d161127d565b5b828206905092915050565b7f636f6d6d6974206475726174696f6e206973206e6f7420636c6f73656420796560008201527f7400000000000000000000000000000000000000000000000000000000000000602082015250565b6000611339602183610f22565b9150611344826112dd565b604082019050919050565b600060208201905081810360008301526113688161132c565b9050919050565b7f72657665616c206475726174696f6e20697320616c726561647920636c6f736560008201527f6400000000000000000000000000000000000000000000000000000000000000602082015250565b60006113cb602183610f22565b91506113d68261136f565b604082019050919050565b600060208201905081810360008301526113fa816113be565b9050919050565b7f596f7520616c72656164792072657665616c6564000000000000000000000000600082015250565b6000611437601483610f22565b915061144282611401565b602082019050919050565b600060208201905081810360008301526114668161142a565b9050919050565b7f636f6d6d6974206e6f74206d6174636865730000000000000000000000000000600082015250565b60006114a3601283610f22565b91506114ae8261146d565b602082019050919050565b600060208201905081810360008301526114d281611496565b9050919050565b6000819050919050565b6114f46114ef82610ce1565b6114d9565b82525050565b6000819050919050565b61151561151082610c72565b6114fa565b82525050565b600061152782856114e3565b6020820191506115378284611504565b6020820191508190509392505050565b60008160601b9050919050565b600061155f82611547565b9050919050565b600061157182611554565b9050919050565b61158961158482610dbd565b611566565b82525050565b600061159b8285611578565b6014820191506115ab8284611504565b602082019150819050939250505056fea2646970667358221220d8012b727e6a62ea8c22ff93083d22d34430b32201023b2366ac305a63ee53f564736f6c634300080f0033","opcodes":"PUSH1 0x80 PUSH1 0x40 MSTORE CALLVALUE DUP1 ISZERO PUSH3 0x11 JUMPI PUSH1 0x0 DUP1 REVERT JUMPDEST POP PUSH1 0x4 NUMBER PUSH3 0x21 SWAP2 SWAP1 PUSH3 0x7D JUMP JUMPDEST PUSH1 0x0 DUP2 SWAP1 SSTORE POP PUSH1 0x4 PUSH1 0x0 SLOAD PUSH3 0x38 SWAP2 SWAP1 PUSH3 0x7D JUMP JUMPDEST PUSH1 0x1 DUP2 SWAP1 SSTORE POP PUSH3 0xDA JUMP JUMPDEST PUSH1 0x0 DUP2 SWAP1 POP SWAP2 SWAP1 POP JUMP JUMPDEST PUSH32 0x4E487B7100000000000000000000000000000000000000000000000000000000 PUSH1 0x0 MSTORE PUSH1 0x11 PUSH1 0x4 MSTORE PUSH1 0x24 PUSH1 0x0 REVERT JUMPDEST PUSH1 0x0 PUSH3 0x8A DUP3 PUSH3 0x44 JUMP JUMPDEST SWAP2 POP PUSH3 0x97 DUP4 PUSH3 0x44 JUMP JUMPDEST SWAP3 POP DUP3 PUSH32 0xFFFFFFFFFFFFFFFFFFFFFFFFFFFFFFFFFFFFFFFFFFFFFFFFFFFFFFFFFFFFFFFF SUB DUP3 GT ISZERO PUSH3 0xCF JUMPI PUSH3 0xCE PUSH3 0x4E JUMP JUMPDEST JUMPDEST DUP3 DUP3 ADD SWAP1 POP SWAP3 SWAP2 POP POP JUMP JUMPDEST PUSH2 0x15F1 DUP1 PUSH3 0xEA PUSH1 0x0 CODECOPY PUSH1 0x0 RETURN INVALID PUSH1 0x80 PUSH1 0x40 MSTORE PUSH1 0x4 CALLDATASIZE LT PUSH2 0xE8 JUMPI PUSH1 0x0 CALLDATALOAD PUSH1 0xE0 SHR DUP1 PUSH4 0x6D6FE230 GT PUSH2 0x8A JUMPI DUP1 PUSH4 0xE580F47B GT PUSH2 0x59 JUMPI DUP1 PUSH4 0xE580F47B EQ PUSH2 0x29F JUMPI DUP1 PUSH4 0xE8FCF723 EQ PUSH2 0x2CA JUMPI DUP1 PUSH4 0xEB88D688 EQ PUSH2 0x307 JUMPI DUP1 PUSH4 0xF71D96CB EQ PUSH2 0x344 JUMPI PUSH2 0xE8 JUMP JUMPDEST DUP1 PUSH4 0x6D6FE230 EQ PUSH2 0x1E3 JUMPI DUP1 PUSH4 0xBCEF097E EQ PUSH2 0x220 JUMPI DUP1 PUSH4 0xC2CA0AC5 EQ PUSH2 0x24B JUMPI DUP1 PUSH4 0xDFBF53AE EQ PUSH2 0x274 JUMPI PUSH2 0xE8 JUMP JUMPDEST DUP1 PUSH4 0x4373FDE5 GT PUSH2 0xC6 JUMPI DUP1 PUSH4 0x4373FDE5 EQ PUSH2 0x16E JUMPI DUP1 PUSH4 0x48D37A58 EQ PUSH2 0x199 JUMPI DUP1 PUSH4 0x568AB21E EQ PUSH2 0x1B0 JUMPI DUP1 PUSH4 0x5D495AEA EQ PUSH2 0x1CC JUMPI PUSH2 0xE8 JUMP JUMPDEST DUP1 PUSH4 0x12065FE0 EQ PUSH2 0xED JUMPI DUP1 PUSH4 0x1BE05289 EQ PUSH2 0x118 JUMPI DUP1 PUSH4 0x216AF0B4 EQ PUSH2 0x143 JUMPI JUMPDEST PUSH1 0x0 DUP1 REVERT JUMPDEST CALLVALUE DUP1 ISZERO PUSH2 0xF9 JUMPI PUSH1 0x0 DUP1 REVERT JUMPDEST POP PUSH2 0x102 PUSH2 0x381 JUMP JUMPDEST PUSH1 0x40 MLOAD PUSH2 0x10F SWAP2 SWAP1 PUSH2 0xC8B JUMP JUMPDEST PUSH1 0x40 MLOAD DUP1 SWAP2 SUB SWAP1 RETURN JUMPDEST CALLVALUE DUP1 ISZERO PUSH2 0x124 JUMPI PUSH1 0x0 DUP1 REVERT JUMPDEST POP PUSH2 0x12D PUSH2 0x389 JUMP JUMPDEST PUSH1 0x40 MLOAD PUSH2 0x13A SWAP2 SWAP1 PUSH2 0xC8B JUMP JUMPDEST PUSH1 0x40 MLOAD DUP1 SWAP2 SUB SWAP1 RETURN JUMPDEST CALLVALUE DUP1 ISZERO PUSH2 0x14F JUMPI PUSH1 0x0 DUP1 REVERT JUMPDEST POP PUSH2 0x158 PUSH2 0x38E JUMP JUMPDEST PUSH1 0x40 MLOAD PUSH2 0x165 SWAP2 SWAP1 PUSH2 0xCC1 JUMP JUMPDEST PUSH1 0x40 MLOAD DUP1 SWAP2 SUB SWAP1 RETURN JUMPDEST CALLVALUE DUP1 ISZERO PUSH2 0x17A JUMPI PUSH1 0x0 DUP1 REVERT JUMPDEST POP PUSH2 0x183 PUSH2 0x436 JUMP JUMPDEST PUSH1 0x40 MLOAD PUSH2 0x190 SWAP2 SWAP1 PUSH2 0xC8B JUMP JUMPDEST PUSH1 0x40 MLOAD DUP1 SWAP2 SUB SWAP1 RETURN JUMPDEST CALLVALUE DUP1 ISZERO PUSH2 0x1A5 JUMPI PUSH1 0x0 DUP1 REVERT JUMPDEST POP PUSH2 0x1AE PUSH2 0x43C JUMP JUMPDEST STOP JUMPDEST PUSH2 0x1CA PUSH1 0x4 DUP1 CALLDATASIZE SUB DUP2 ADD SWAP1 PUSH2 0x1C5 SWAP2 SWAP1 PUSH2 0xD17 JUMP JUMPDEST PUSH2 0x681 JUMP JUMPDEST STOP JUMPDEST CALLVALUE DUP1 ISZERO PUSH2 0x1D8 JUMPI PUSH1 0x0 DUP1 REVERT JUMPDEST POP PUSH2 0x1E1 PUSH2 0x756 JUMP JUMPDEST STOP JUMPDEST CALLVALUE DUP1 ISZERO PUSH2 0x1EF JUMPI PUSH1 0x0 DUP1 REVERT JUMPDEST POP PUSH2 0x20A PUSH1 0x4 DUP1 CALLDATASIZE SUB DUP2 ADD SWAP1 PUSH2 0x205 SWAP2 SWAP1 PUSH2 0xD70 JUMP JUMPDEST PUSH2 0x94F JUMP JUMPDEST PUSH1 0x40 MLOAD PUSH2 0x217 SWAP2 SWAP1 PUSH2 0xDDE JUMP JUMPDEST PUSH1 0x40 MLOAD DUP1 SWAP2 SUB SWAP1 RETURN JUMPDEST CALLVALUE DUP1 ISZERO PUSH2 0x22C JUMPI PUSH1 0x0 DUP1 REVERT JUMPDEST POP PUSH2 0x235 PUSH2 0x982 JUMP JUMPDEST PUSH1 0x40 MLOAD PUSH2 0x242 SWAP2 SWAP1 PUSH2 0xC8B JUMP JUMPDEST PUSH1 0x40 MLOAD DUP1 SWAP2 SUB SWAP1 RETURN JUMPDEST CALLVALUE DUP1 ISZERO PUSH2 0x257 JUMPI PUSH1 0x0 DUP1 REVERT JUMPDEST POP PUSH2 0x272 PUSH1 0x4 DUP1 CALLDATASIZE SUB DUP2 ADD SWAP1 PUSH2 0x26D SWAP2 SWAP1 PUSH2 0xD70 JUMP JUMPDEST PUSH2 0x988 JUMP JUMPDEST STOP JUMPDEST CALLVALUE DUP1 ISZERO PUSH2 0x280 JUMPI PUSH1 0x0 DUP1 REVERT JUMPDEST POP PUSH2 0x289 PUSH2 0xB7F JUMP JUMPDEST PUSH1 0x40 MLOAD PUSH2 0x296 SWAP2 SWAP1 PUSH2 0xDDE JUMP JUMPDEST PUSH1 0x40 MLOAD DUP1 SWAP2 SUB SWAP1 RETURN JUMPDEST CALLVALUE DUP1 ISZERO PUSH2 0x2AB JUMPI PUSH1 0x0 DUP1 REVERT JUMPDEST POP PUSH2 0x2B4 PUSH2 0xBA5 JUMP JUMPDEST PUSH1 0x40 MLOAD PUSH2 0x2C1 SWAP2 SWAP1 PUSH2 0xC8B JUMP JUMPDEST PUSH1 0x40 MLOAD DUP1 SWAP2 SUB SWAP1 RETURN JUMPDEST CALLVALUE DUP1 ISZERO PUSH2 0x2D6 JUMPI PUSH1 0x0 DUP1 REVERT JUMPDEST POP PUSH2 0x2F1 PUSH1 0x4 DUP1 CALLDATASIZE SUB DUP2 ADD SWAP1 PUSH2 0x2EC SWAP2 SWAP1 PUSH2 0xE25 JUMP JUMPDEST PUSH2 0xBAB JUMP JUMPDEST PUSH1 0x40 MLOAD PUSH2 0x2FE SWAP2 SWAP1 PUSH2 0xE61 JUMP JUMPDEST PUSH1 0x40 MLOAD DUP1 SWAP2 SUB SWAP1 RETURN JUMPDEST CALLVALUE DUP1 ISZERO PUSH2 0x313 JUMPI PUSH1 0x0 DUP1 REVERT JUMPDEST POP PUSH2 0x32E PUSH1 0x4 DUP1 CALLDATASIZE SUB DUP2 ADD SWAP1 PUSH2 0x329 SWAP2 SWAP1 PUSH2 0xD70 JUMP JUMPDEST PUSH2 0xBC3 JUMP JUMPDEST PUSH1 0x40 MLOAD PUSH2 0x33B SWAP2 SWAP1 PUSH2 0xE61 JUMP JUMPDEST PUSH1 0x40 MLOAD DUP1 SWAP2 SUB SWAP1 RETURN JUMPDEST CALLVALUE DUP1 ISZERO PUSH2 0x350 JUMPI PUSH1 0x0 DUP1 REVERT JUMPDEST POP PUSH2 0x36B PUSH1 0x4 DUP1 CALLDATASIZE SUB DUP2 ADD SWAP1 PUSH2 0x366 SWAP2 SWAP1 PUSH2 0xD70 JUMP JUMPDEST PUSH2 0xBF5 JUMP JUMPDEST PUSH1 0x40 MLOAD PUSH2 0x378 SWAP2 SWAP1 PUSH2 0xDDE JUMP JUMPDEST PUSH1 0x40 MLOAD DUP1 SWAP2 SUB SWAP1 RETURN JUMPDEST PUSH1 0x0 SELFBALANCE SWAP1 POP SWAP1 JUMP JUMPDEST PUSH1 0x4 DUP2 JUMP JUMPDEST PUSH1 0x0 DUP1 JUMPDEST PUSH1 0x3 DUP1 SLOAD SWAP1 POP DUP2 LT ISZERO PUSH2 0x42D JUMPI PUSH1 0x3 DUP2 DUP2 SLOAD DUP2 LT PUSH2 0x3B3 JUMPI PUSH2 0x3B2 PUSH2 0xE7C JUMP JUMPDEST JUMPDEST SWAP1 PUSH1 0x0 MSTORE PUSH1 0x20 PUSH1 0x0 KECCAK256 ADD PUSH1 0x0 SWAP1 SLOAD SWAP1 PUSH2 0x100 EXP SWAP1 DIV PUSH20 0xFFFFFFFFFFFFFFFFFFFFFFFFFFFFFFFFFFFFFFFF AND PUSH20 0xFFFFFFFFFFFFFFFFFFFFFFFFFFFFFFFFFFFFFFFF AND CALLER PUSH20 0xFFFFFFFFFFFFFFFFFFFFFFFFFFFFFFFFFFFFFFFF AND SUB PUSH2 0x41A JUMPI PUSH1 0x1 SWAP2 POP POP PUSH2 0x433 JUMP JUMPDEST DUP1 DUP1 PUSH2 0x425 SWAP1 PUSH2 0xEDA JUMP JUMPDEST SWAP2 POP POP PUSH2 0x392 JUMP JUMPDEST POP PUSH1 0x0 SWAP1 POP JUMPDEST SWAP1 JUMP JUMPDEST PUSH1 0x1 SLOAD DUP2 JUMP JUMPDEST PUSH1 0x4 PUSH1 0x0 SWAP1 SLOAD SWAP1 PUSH2 0x100 EXP SWAP1 DIV PUSH20 0xFFFFFFFFFFFFFFFFFFFFFFFFFFFFFFFFFFFFFFFF AND PUSH20 0xFFFFFFFFFFFFFFFFFFFFFFFFFFFFFFFFFFFFFFFF AND CALLER PUSH20 0xFFFFFFFFFFFFFFFFFFFFFFFFFFFFFFFFFFFFFFFF AND EQ PUSH2 0x4CC JUMPI PUSH1 0x40 MLOAD PUSH32 0x8C379A000000000000000000000000000000000000000000000000000000000 DUP2 MSTORE PUSH1 0x4 ADD PUSH2 0x4C3 SWAP1 PUSH2 0xF7F JUMP JUMPDEST PUSH1 0x40 MLOAD DUP1 SWAP2 SUB SWAP1 REVERT JUMPDEST PUSH1 0x4 PUSH1 0x0 PUSH2 0x100 EXP DUP2 SLOAD SWAP1 PUSH20 0xFFFFFFFFFFFFFFFFFFFFFFFFFFFFFFFFFFFFFFFF MUL NOT AND SWAP1 SSTORE PUSH1 0x0 JUMPDEST PUSH1 0x3 DUP1 SLOAD SWAP1 POP DUP2 LT ISZERO PUSH2 0x595 JUMPI PUSH1 0x6 PUSH1 0x0 PUSH1 0x3 DUP4 DUP2 SLOAD DUP2 LT PUSH2 0x519 JUMPI PUSH2 0x518 PUSH2 0xE7C JUMP JUMPDEST JUMPDEST SWAP1 PUSH1 0x0 MSTORE PUSH1 0x20 PUSH1 0x0 KECCAK256 ADD PUSH1 0x0 SWAP1 SLOAD SWAP1 PUSH2 0x100 EXP SWAP1 DIV PUSH20 0xFFFFFFFFFFFFFFFFFFFFFFFFFFFFFFFFFFFFFFFF AND PUSH20 0xFFFFFFFFFFFFFFFFFFFFFFFFFFFFFFFFFFFFFFFF AND PUSH20 0xFFFFFFFFFFFFFFFFFFFFFFFFFFFFFFFFFFFFFFFF AND DUP2 MSTORE PUSH1 0x20 ADD SWAP1 DUP2 MSTORE PUSH1 0x20 ADD PUSH1 0x0 KECCAK256 PUSH1 0x0 SWAP1 SSTORE DUP1 DUP1 PUSH2 0x58D SWAP1 PUSH2 0xEDA JUMP JUMPDEST SWAP2 POP POP PUSH2 0x4F4 JUMP JUMPDEST POP PUSH1 0x3 PUSH1 0x0 PUSH2 0x5A4 SWAP2 SWAP1 PUSH2 0xC34 JUMP JUMPDEST PUSH1 0x5 PUSH1 0x0 SWAP1 SSTORE PUSH1 0x4 NUMBER PUSH2 0x5B7 SWAP2 SWAP1 PUSH2 0xF9F JUMP JUMPDEST PUSH1 0x0 DUP2 SWAP1 SSTORE POP PUSH1 0x4 PUSH1 0x0 SLOAD PUSH2 0x5CC SWAP2 SWAP1 PUSH2 0xF9F JUMP JUMPDEST PUSH1 0x1 DUP2 SWAP1 SSTORE POP PUSH1 0x0 CALLER PUSH20 0xFFFFFFFFFFFFFFFFFFFFFFFFFFFFFFFFFFFFFFFF AND SELFBALANCE PUSH1 0x40 MLOAD PUSH2 0x5F8 SWAP1 PUSH2 0x1026 JUMP JUMPDEST PUSH1 0x0 PUSH1 0x40 MLOAD DUP1 DUP4 SUB DUP2 DUP6 DUP8 GAS CALL SWAP3 POP POP POP RETURNDATASIZE DUP1 PUSH1 0x0 DUP2 EQ PUSH2 0x635 JUMPI PUSH1 0x40 MLOAD SWAP2 POP PUSH1 0x1F NOT PUSH1 0x3F RETURNDATASIZE ADD AND DUP3 ADD PUSH1 0x40 MSTORE RETURNDATASIZE DUP3 MSTORE RETURNDATASIZE PUSH1 0x0 PUSH1 0x20 DUP5 ADD RETURNDATACOPY PUSH2 0x63A JUMP JUMPDEST PUSH1 0x60 SWAP2 POP JUMPDEST POP POP SWAP1 POP DUP1 PUSH2 0x67E JUMPI PUSH1 0x40 MLOAD PUSH32 0x8C379A000000000000000000000000000000000000000000000000000000000 DUP2 MSTORE PUSH1 0x4 ADD PUSH2 0x675 SWAP1 PUSH2 0x1087 JUMP JUMPDEST PUSH1 0x40 MLOAD DUP1 SWAP2 SUB SWAP1 REVERT JUMPDEST POP JUMP JUMPDEST PUSH7 0x2386F26FC10000 CALLVALUE LT ISZERO PUSH2 0x6CB JUMPI PUSH1 0x40 MLOAD PUSH32 0x8C379A000000000000000000000000000000000000000000000000000000000 DUP2 MSTORE PUSH1 0x4 ADD PUSH2 0x6C2 SWAP1 PUSH2 0x1119 JUMP JUMPDEST PUSH1 0x40 MLOAD DUP1 SWAP2 SUB SWAP1 REVERT JUMPDEST PUSH1 0x0 SLOAD NUMBER LT PUSH2 0x70F JUMPI PUSH1 0x40 MLOAD PUSH32 0x8C379A000000000000000000000000000000000000000000000000000000000 DUP2 MSTORE PUSH1 0x4 ADD PUSH2 0x706 SWAP1 PUSH2 0x1185 JUMP JUMPDEST PUSH1 0x40 MLOAD DUP1 SWAP2 SUB SWAP1 REVERT JUMPDEST DUP1 PUSH1 0x6 PUSH1 0x0 CALLER PUSH20 0xFFFFFFFFFFFFFFFFFFFFFFFFFFFFFFFFFFFFFFFF AND PUSH20 0xFFFFFFFFFFFFFFFFFFFFFFFFFFFFFFFFFFFFFFFF AND DUP2 MSTORE PUSH1 0x20 ADD SWAP1 DUP2 MSTORE PUSH1 0x20 ADD PUSH1 0x0 KECCAK256 DUP2 SWAP1 SSTORE POP POP JUMP JUMPDEST PUSH1 0x1 SLOAD NUMBER LT ISZERO PUSH2 0x79B JUMPI PUSH1 0x40 MLOAD PUSH32 0x8C379A000000000000000000000000000000000000000000000000000000000 DUP2 MSTORE PUSH1 0x4 ADD PUSH2 0x792 SWAP1 PUSH2 0x11F1 JUMP JUMPDEST PUSH1 0x40 MLOAD DUP1 SWAP2 SUB SWAP1 REVERT JUMPDEST PUSH1 0x0 PUSH20 0xFFFFFFFFFFFFFFFFFFFFFFFFFFFFFFFFFFFFFFFF AND PUSH1 0x4 PUSH1 0x0 SWAP1 SLOAD SWAP1 PUSH2 0x100 EXP SWAP1 DIV PUSH20 0xFFFFFFFFFFFFFFFFFFFFFFFFFFFFFFFFFFFFFFFF AND PUSH20 0xFFFFFFFFFFFFFFFFFFFFFFFFFFFFFFFFFFFFFFFF AND EQ PUSH2 0x82C JUMPI PUSH1 0x40 MLOAD PUSH32 0x8C379A000000000000000000000000000000000000000000000000000000000 DUP2 MSTORE PUSH1 0x4 ADD PUSH2 0x823 SWAP1 PUSH2 0x125D JUMP JUMPDEST PUSH1 0x40 MLOAD DUP1 SWAP2 SUB SWAP1 REVERT JUMPDEST PUSH1 0x3 DUP1 DUP1 SLOAD SWAP1 POP PUSH1 0x5 SLOAD PUSH1 0x0 SHR PUSH2 0x843 SWAP2 SWAP1 PUSH2 0x12AC JUMP JUMPDEST DUP2 SLOAD DUP2 LT PUSH2 0x854 JUMPI PUSH2 0x853 PUSH2 0xE7C JUMP JUMPDEST JUMPDEST SWAP1 PUSH1 0x0 MSTORE PUSH1 0x20 PUSH1 0x0 KECCAK256 ADD PUSH1 0x0 SWAP1 SLOAD SWAP1 PUSH2 0x100 EXP SWAP1 DIV PUSH20 0xFFFFFFFFFFFFFFFFFFFFFFFFFFFFFFFFFFFFFFFF AND PUSH1 0x4 PUSH1 0x0 PUSH2 0x100 EXP DUP2 SLOAD DUP2 PUSH20 0xFFFFFFFFFFFFFFFFFFFFFFFFFFFFFFFFFFFFFFFF MUL NOT AND SWAP1 DUP4 PUSH20 0xFFFFFFFFFFFFFFFFFFFFFFFFFFFFFFFFFFFFFFFF AND MUL OR SWAP1 SSTORE POP PUSH1 0x4 PUSH1 0x0 SWAP1 SLOAD SWAP1 PUSH2 0x100 EXP SWAP1 DIV PUSH20 0xFFFFFFFFFFFFFFFFFFFFFFFFFFFFFFFFFFFFFFFF AND PUSH1 0x7 PUSH1 0x0 PUSH1 0x2 SLOAD DUP2 MSTORE PUSH1 0x20 ADD SWAP1 DUP2 MSTORE PUSH1 0x20 ADD PUSH1 0x0 KECCAK256 PUSH1 0x0 PUSH2 0x100 EXP DUP2 SLOAD DUP2 PUSH20 0xFFFFFFFFFFFFFFFFFFFFFFFFFFFFFFFFFFFFFFFF MUL NOT AND SWAP1 DUP4 PUSH20 0xFFFFFFFFFFFFFFFFFFFFFFFFFFFFFFFFFFFFFFFF AND MUL OR SWAP1 SSTORE POP PUSH1 0x2 PUSH1 0x0 DUP2 SLOAD DUP1 SWAP3 SWAP2 SWAP1 PUSH2 0x948 SWAP1 PUSH2 0xEDA JUMP JUMPDEST SWAP2 SWAP1 POP SSTORE POP JUMP JUMPDEST PUSH1 0x7 PUSH1 0x20 MSTORE DUP1 PUSH1 0x0 MSTORE PUSH1 0x40 PUSH1 0x0 KECCAK256 PUSH1 0x0 SWAP2 POP SLOAD SWAP1 PUSH2 0x100 EXP SWAP1 DIV PUSH20 0xFFFFFFFFFFFFFFFFFFFFFFFFFFFFFFFFFFFFFFFF AND DUP2 JUMP JUMPDEST PUSH1 0x0 SLOAD DUP2 JUMP JUMPDEST PUSH1 0x0 SLOAD NUMBER LT ISZERO PUSH2 0x9CD JUMPI PUSH1 0x40 MLOAD PUSH32 0x8C379A000000000000000000000000000000000000000000000000000000000 DUP2 MSTORE PUSH1 0x4 ADD PUSH2 0x9C4 SWAP1 PUSH2 0x134F JUMP JUMPDEST PUSH1 0x40 MLOAD DUP1 SWAP2 SUB SWAP1 REVERT JUMPDEST PUSH1 0x1 SLOAD NUMBER LT PUSH2 0xA11 JUMPI PUSH1 0x40 MLOAD PUSH32 0x8C379A000000000000000000000000000000000000000000000000000000000 DUP2 MSTORE PUSH1 0x4 ADD PUSH2 0xA08 SWAP1 PUSH2 0x13E1 JUMP JUMPDEST PUSH1 0x40 MLOAD DUP1 SWAP2 SUB SWAP1 REVERT JUMPDEST PUSH2 0xA19 PUSH2 0x38E JUMP JUMPDEST ISZERO PUSH2 0xA59 JUMPI PUSH1 0x40 MLOAD PUSH32 0x8C379A000000000000000000000000000000000000000000000000000000000 DUP2 MSTORE PUSH1 0x4 ADD PUSH2 0xA50 SWAP1 PUSH2 0x144D JUMP JUMPDEST PUSH1 0x40 MLOAD DUP1 SWAP2 SUB SWAP1 REVERT JUMPDEST PUSH1 0x0 PUSH2 0xA64 DUP3 PUSH2 0xBC3 JUMP JUMPDEST SWAP1 POP PUSH1 0x6 PUSH1 0x0 CALLER PUSH20 0xFFFFFFFFFFFFFFFFFFFFFFFFFFFFFFFFFFFFFFFF AND PUSH20 0xFFFFFFFFFFFFFFFFFFFFFFFFFFFFFFFFFFFFFFFF AND DUP2 MSTORE PUSH1 0x20 ADD SWAP1 DUP2 MSTORE PUSH1 0x20 ADD PUSH1 0x0 KECCAK256 SLOAD DUP2 EQ PUSH2 0xAE7 JUMPI PUSH1 0x40 MLOAD PUSH32 0x8C379A000000000000000000000000000000000000000000000000000000000 DUP2 MSTORE PUSH1 0x4 ADD PUSH2 0xADE SWAP1 PUSH2 0x14B9 JUMP JUMPDEST PUSH1 0x40 MLOAD DUP1 SWAP2 SUB SWAP1 REVERT JUMPDEST PUSH1 0x5 SLOAD DUP3 PUSH1 0x40 MLOAD PUSH1 0x20 ADD PUSH2 0xAFC SWAP3 SWAP2 SWAP1 PUSH2 0x151B JUMP JUMPDEST PUSH1 0x40 MLOAD PUSH1 0x20 DUP2 DUP4 SUB SUB DUP2 MSTORE SWAP1 PUSH1 0x40 MSTORE DUP1 MLOAD SWAP1 PUSH1 0x20 ADD KECCAK256 PUSH1 0x5 DUP2 SWAP1 SSTORE POP PUSH1 0x3 CALLER SWAP1 DUP1 PUSH1 0x1 DUP2 SLOAD ADD DUP1 DUP3 SSTORE DUP1 SWAP2 POP POP PUSH1 0x1 SWAP1 SUB SWAP1 PUSH1 0x0 MSTORE PUSH1 0x20 PUSH1 0x0 KECCAK256 ADD PUSH1 0x0 SWAP1 SWAP2 SWAP1 SWAP2 SWAP1 SWAP2 PUSH2 0x100 EXP DUP2 SLOAD DUP2 PUSH20 0xFFFFFFFFFFFFFFFFFFFFFFFFFFFFFFFFFFFFFFFF MUL NOT AND SWAP1 DUP4 PUSH20 0xFFFFFFFFFFFFFFFFFFFFFFFFFFFFFFFFFFFFFFFF AND MUL OR SWAP1 SSTORE POP POP POP JUMP JUMPDEST PUSH1 0x4 PUSH1 0x0 SWAP1 SLOAD SWAP1 PUSH2 0x100 EXP SWAP1 DIV PUSH20 0xFFFFFFFFFFFFFFFFFFFFFFFFFFFFFFFFFFFFFFFF AND DUP2 JUMP JUMPDEST PUSH1 0x2 SLOAD DUP2 JUMP JUMPDEST PUSH1 0x6 PUSH1 0x20 MSTORE DUP1 PUSH1 0x0 MSTORE PUSH1 0x40 PUSH1 0x0 KECCAK256 PUSH1 0x0 SWAP2 POP SWAP1 POP SLOAD DUP2 JUMP JUMPDEST PUSH1 0x0 CALLER DUP3 PUSH1 0x40 MLOAD PUSH1 0x20 ADD PUSH2 0xBD8 SWAP3 SWAP2 SWAP1 PUSH2 0x158F JUMP JUMPDEST PUSH1 0x40 MLOAD PUSH1 0x20 DUP2 DUP4 SUB SUB DUP2 MSTORE SWAP1 PUSH1 0x40 MSTORE DUP1 MLOAD SWAP1 PUSH1 0x20 ADD KECCAK256 SWAP1 POP SWAP2 SWAP1 POP JUMP JUMPDEST PUSH1 0x3 DUP2 DUP2 SLOAD DUP2 LT PUSH2 0xC05 JUMPI PUSH1 0x0 DUP1 REVERT JUMPDEST SWAP1 PUSH1 0x0 MSTORE PUSH1 0x20 PUSH1 0x0 KECCAK256 ADD PUSH1 0x0 SWAP2 POP SLOAD SWAP1 PUSH2 0x100 EXP SWAP1 DIV PUSH20 0xFFFFFFFFFFFFFFFFFFFFFFFFFFFFFFFFFFFFFFFF AND DUP2 JUMP JUMPDEST POP DUP1 SLOAD PUSH1 0x0 DUP3 SSTORE SWAP1 PUSH1 0x0 MSTORE PUSH1 0x20 PUSH1 0x0 KECCAK256 SWAP1 DUP2 ADD SWAP1 PUSH2 0xC52 SWAP2 SWAP1 PUSH2 0xC55 JUMP JUMPDEST POP JUMP JUMPDEST JUMPDEST DUP1 DUP3 GT ISZERO PUSH2 0xC6E JUMPI PUSH1 0x0 DUP2 PUSH1 0x0 SWAP1 SSTORE POP PUSH1 0x1 ADD PUSH2 0xC56 JUMP JUMPDEST POP SWAP1 JUMP JUMPDEST PUSH1 0x0 DUP2 SWAP1 POP SWAP2 SWAP1 POP JUMP JUMPDEST PUSH2 0xC85 DUP2 PUSH2 0xC72 JUMP JUMPDEST DUP3 MSTORE POP POP JUMP JUMPDEST PUSH1 0x0 PUSH1 0x20 DUP3 ADD SWAP1 POP PUSH2 0xCA0 PUSH1 0x0 DUP4 ADD DUP5 PUSH2 0xC7C JUMP JUMPDEST SWAP3 SWAP2 POP POP JUMP JUMPDEST PUSH1 0x0 DUP2 ISZERO ISZERO SWAP1 POP SWAP2 SWAP1 POP JUMP JUMPDEST PUSH2 0xCBB DUP2 PUSH2 0xCA6 JUMP JUMPDEST DUP3 MSTORE POP POP JUMP JUMPDEST PUSH1 0x0 PUSH1 0x20 DUP3 ADD SWAP1 POP PUSH2 0xCD6 PUSH1 0x0 DUP4 ADD DUP5 PUSH2 0xCB2 JUMP JUMPDEST SWAP3 SWAP2 POP POP JUMP JUMPDEST PUSH1 0x0 DUP1 REVERT JUMPDEST PUSH1 0x0 DUP2 SWAP1 POP SWAP2 SWAP1 POP JUMP JUMPDEST PUSH2 0xCF4 DUP2 PUSH2 0xCE1 JUMP JUMPDEST DUP2 EQ PUSH2 0xCFF JUMPI PUSH1 0x0 DUP1 REVERT JUMPDEST POP JUMP JUMPDEST PUSH1 0x0 DUP2 CALLDATALOAD SWAP1 POP PUSH2 0xD11 DUP2 PUSH2 0xCEB JUMP JUMPDEST SWAP3 SWAP2 POP POP JUMP JUMPDEST PUSH1 0x0 PUSH1 0x20 DUP3 DUP5 SUB SLT ISZERO PUSH2 0xD2D JUMPI PUSH2 0xD2C PUSH2 0xCDC JUMP JUMPDEST JUMPDEST PUSH1 0x0 PUSH2 0xD3B DUP5 DUP3 DUP6 ADD PUSH2 0xD02 JUMP JUMPDEST SWAP2 POP POP SWAP3 SWAP2 POP POP JUMP JUMPDEST PUSH2 0xD4D DUP2 PUSH2 0xC72 JUMP JUMPDEST DUP2 EQ PUSH2 0xD58 JUMPI PUSH1 0x0 DUP1 REVERT JUMPDEST POP JUMP JUMPDEST PUSH1 0x0 DUP2 CALLDATALOAD SWAP1 POP PUSH2 0xD6A DUP2 PUSH2 0xD44 JUMP JUMPDEST SWAP3 SWAP2 POP POP JUMP JUMPDEST PUSH1 0x0 PUSH1 0x20 DUP3 DUP5 SUB SLT ISZERO PUSH2 0xD86 JUMPI PUSH2 0xD85 PUSH2 0xCDC JUMP JUMPDEST JUMPDEST PUSH1 0x0 PUSH2 0xD94 DUP5 DUP3 DUP6 ADD PUSH2 0xD5B JUMP JUMPDEST SWAP2 POP POP SWAP3 SWAP2 POP POP JUMP JUMPDEST PUSH1 0x0 PUSH20 0xFFFFFFFFFFFFFFFFFFFFFFFFFFFFFFFFFFFFFFFF DUP3 AND SWAP1 POP SWAP2 SWAP1 POP JUMP JUMPDEST PUSH1 0x0 PUSH2 0xDC8 DUP3 PUSH2 0xD9D JUMP JUMPDEST SWAP1 POP SWAP2 SWAP1 POP JUMP JUMPDEST PUSH2 0xDD8 DUP2 PUSH2 0xDBD JUMP JUMPDEST DUP3 MSTORE POP POP JUMP JUMPDEST PUSH1 0x0 PUSH1 0x20 DUP3 ADD SWAP1 POP PUSH2 0xDF3 PUSH1 0x0 DUP4 ADD DUP5 PUSH2 0xDCF JUMP JUMPDEST SWAP3 SWAP2 POP POP JUMP JUMPDEST PUSH2 0xE02 DUP2 PUSH2 0xDBD JUMP JUMPDEST DUP2 EQ PUSH2 0xE0D JUMPI PUSH1 0x0 DUP1 REVERT JUMPDEST POP JUMP JUMPDEST PUSH1 0x0 DUP2 CALLDATALOAD SWAP1 POP PUSH2 0xE1F DUP2 PUSH2 0xDF9 JUMP JUMPDEST SWAP3 SWAP2 POP POP JUMP JUMPDEST PUSH1 0x0 PUSH1 0x20 DUP3 DUP5 SUB SLT ISZERO PUSH2 0xE3B JUMPI PUSH2 0xE3A PUSH2 0xCDC JUMP JUMPDEST JUMPDEST PUSH1 0x0 PUSH2 0xE49 DUP5 DUP3 DUP6 ADD PUSH2 0xE10 JUMP JUMPDEST SWAP2 POP POP SWAP3 SWAP2 POP POP JUMP JUMPDEST PUSH2 0xE5B DUP2 PUSH2 0xCE1 JUMP JUMPDEST DUP3 MSTORE POP POP JUMP JUMPDEST PUSH1 0x0 PUSH1 0x20 DUP3 ADD SWAP1 POP PUSH2 0xE76 PUSH1 0x0 DUP4 ADD DUP5 PUSH2 0xE52 JUMP JUMPDEST SWAP3 SWAP2 POP POP JUMP JUMPDEST PUSH32 0x4E487B7100000000000000000000000000000000000000000000000000000000 PUSH1 0x0 MSTORE PUSH1 0x32 PUSH1 0x4 MSTORE PUSH1 0x24 PUSH1 0x0 REVERT JUMPDEST PUSH32 0x4E487B7100000000000000000000000000000000000000000000000000000000 PUSH1 0x0 MSTORE PUSH1 0x11 PUSH1 0x4 MSTORE PUSH1 0x24 PUSH1 0x0 REVERT JUMPDEST PUSH1 0x0 PUSH2 0xEE5 DUP3 PUSH2 0xC72 JUMP JUMPDEST SWAP2 POP PUSH32 0xFFFFFFFFFFFFFFFFFFFFFFFFFFFFFFFFFFFFFFFFFFFFFFFFFFFFFFFFFFFFFFFF DUP3 SUB PUSH2 0xF17 JUMPI PUSH2 0xF16 PUSH2 0xEAB JUMP JUMPDEST JUMPDEST PUSH1 0x1 DUP3 ADD SWAP1 POP SWAP2 SWAP1 POP JUMP JUMPDEST PUSH1 0x0 DUP3 DUP3 MSTORE PUSH1 0x20 DUP3 ADD SWAP1 POP SWAP3 SWAP2 POP POP JUMP JUMPDEST PUSH32 0x596F75277265206E6F74207468652077696E6E65720000000000000000000000 PUSH1 0x0 DUP3 ADD MSTORE POP JUMP JUMPDEST PUSH1 0x0 PUSH2 0xF69 PUSH1 0x15 DUP4 PUSH2 0xF22 JUMP JUMPDEST SWAP2 POP PUSH2 0xF74 DUP3 PUSH2 0xF33 JUMP JUMPDEST PUSH1 0x20 DUP3 ADD SWAP1 POP SWAP2 SWAP1 POP JUMP JUMPDEST PUSH1 0x0 PUSH1 0x20 DUP3 ADD SWAP1 POP DUP2 DUP2 SUB PUSH1 0x0 DUP4 ADD MSTORE PUSH2 0xF98 DUP2 PUSH2 0xF5C JUMP JUMPDEST SWAP1 POP SWAP2 SWAP1 POP JUMP JUMPDEST PUSH1 0x0 PUSH2 0xFAA DUP3 PUSH2 0xC72 JUMP JUMPDEST SWAP2 POP PUSH2 0xFB5 DUP4 PUSH2 0xC72 JUMP JUMPDEST SWAP3 POP DUP3 PUSH32 0xFFFFFFFFFFFFFFFFFFFFFFFFFFFFFFFFFFFFFFFFFFFFFFFFFFFFFFFFFFFFFFFF SUB DUP3 GT ISZERO PUSH2 0xFEA JUMPI PUSH2 0xFE9 PUSH2 0xEAB JUMP JUMPDEST JUMPDEST DUP3 DUP3 ADD SWAP1 POP SWAP3 SWAP2 POP POP JUMP JUMPDEST PUSH1 0x0 DUP2 SWAP1 POP SWAP3 SWAP2 POP POP JUMP JUMPDEST POP JUMP JUMPDEST PUSH1 0x0 PUSH2 0x1010 PUSH1 0x0 DUP4 PUSH2 0xFF5 JUMP JUMPDEST SWAP2 POP PUSH2 0x101B DUP3 PUSH2 0x1000 JUMP JUMPDEST PUSH1 0x0 DUP3 ADD SWAP1 POP SWAP2 SWAP1 POP JUMP JUMPDEST PUSH1 0x0 PUSH2 0x1031 DUP3 PUSH2 0x1003 JUMP JUMPDEST SWAP2 POP DUP2 SWAP1 POP SWAP2 SWAP1 POP JUMP JUMPDEST PUSH32 0x4661696C656420746F2073656E6420457468657220746F2077696E6E65720000 PUSH1 0x0 DUP3 ADD MSTORE POP JUMP JUMPDEST PUSH1 0x0 PUSH2 0x1071 PUSH1 0x1E DUP4 PUSH2 0xF22 JUMP JUMPDEST SWAP2 POP PUSH2 0x107C DUP3 PUSH2 0x103B JUMP JUMPDEST PUSH1 0x20 DUP3 ADD SWAP1 POP SWAP2 SWAP1 POP JUMP JUMPDEST PUSH1 0x0 PUSH1 0x20 DUP3 ADD SWAP1 POP DUP2 DUP2 SUB PUSH1 0x0 DUP4 ADD MSTORE PUSH2 0x10A0 DUP2 PUSH2 0x1064 JUMP JUMPDEST SWAP1 POP SWAP2 SWAP1 POP JUMP JUMPDEST PUSH32 0x6D73672E76616C75652073686F756C642062652067726561746572207468616E PUSH1 0x0 DUP3 ADD MSTORE PUSH32 0x206F7220657175616C20746F20302E3031206574686572000000000000000000 PUSH1 0x20 DUP3 ADD MSTORE POP JUMP JUMPDEST PUSH1 0x0 PUSH2 0x1103 PUSH1 0x37 DUP4 PUSH2 0xF22 JUMP JUMPDEST SWAP2 POP PUSH2 0x110E DUP3 PUSH2 0x10A7 JUMP JUMPDEST PUSH1 0x40 DUP3 ADD SWAP1 POP SWAP2 SWAP1 POP JUMP JUMPDEST PUSH1 0x0 PUSH1 0x20 DUP3 ADD SWAP1 POP DUP2 DUP2 SUB PUSH1 0x0 DUP4 ADD MSTORE PUSH2 0x1132 DUP2 PUSH2 0x10F6 JUMP JUMPDEST SWAP1 POP SWAP2 SWAP1 POP JUMP JUMPDEST PUSH32 0x636F6D6D6974206475726174696F6E206973206F766572000000000000000000 PUSH1 0x0 DUP3 ADD MSTORE POP JUMP JUMPDEST PUSH1 0x0 PUSH2 0x116F PUSH1 0x17 DUP4 PUSH2 0xF22 JUMP JUMPDEST SWAP2 POP PUSH2 0x117A DUP3 PUSH2 0x1139 JUMP JUMPDEST PUSH1 0x20 DUP3 ADD SWAP1 POP SWAP2 SWAP1 POP JUMP JUMPDEST PUSH1 0x0 PUSH1 0x20 DUP3 ADD SWAP1 POP DUP2 DUP2 SUB PUSH1 0x0 DUP4 ADD MSTORE PUSH2 0x119E DUP2 PUSH2 0x1162 JUMP JUMPDEST SWAP1 POP SWAP2 SWAP1 POP JUMP JUMPDEST PUSH32 0x4E6F742079657420746F207069636B2077696E6E657200000000000000000000 PUSH1 0x0 DUP3 ADD MSTORE POP JUMP JUMPDEST PUSH1 0x0 PUSH2 0x11DB PUSH1 0x16 DUP4 PUSH2 0xF22 JUMP JUMPDEST SWAP2 POP PUSH2 0x11E6 DUP3 PUSH2 0x11A5 JUMP JUMPDEST PUSH1 0x20 DUP3 ADD SWAP1 POP SWAP2 SWAP1 POP JUMP JUMPDEST PUSH1 0x0 PUSH1 0x20 DUP3 ADD SWAP1 POP DUP2 DUP2 SUB PUSH1 0x0 DUP4 ADD MSTORE PUSH2 0x120A DUP2 PUSH2 0x11CE JUMP JUMPDEST SWAP1 POP SWAP2 SWAP1 POP JUMP JUMPDEST PUSH32 0x77696E6E657220697320616C7265616479207365740000000000000000000000 PUSH1 0x0 DUP3 ADD MSTORE POP JUMP JUMPDEST PUSH1 0x0 PUSH2 0x1247 PUSH1 0x15 DUP4 PUSH2 0xF22 JUMP JUMPDEST SWAP2 POP PUSH2 0x1252 DUP3 PUSH2 0x1211 JUMP JUMPDEST PUSH1 0x20 DUP3 ADD SWAP1 POP SWAP2 SWAP1 POP JUMP JUMPDEST PUSH1 0x0 PUSH1 0x20 DUP3 ADD SWAP1 POP DUP2 DUP2 SUB PUSH1 0x0 DUP4 ADD MSTORE PUSH2 0x1276 DUP2 PUSH2 0x123A JUMP JUMPDEST SWAP1 POP SWAP2 SWAP1 POP JUMP JUMPDEST PUSH32 0x4E487B7100000000000000000000000000000000000000000000000000000000 PUSH1 0x0 MSTORE PUSH1 0x12 PUSH1 0x4 MSTORE PUSH1 0x24 PUSH1 0x0 REVERT JUMPDEST PUSH1 0x0 PUSH2 0x12B7 DUP3 PUSH2 0xC72 JUMP JUMPDEST SWAP2 POP PUSH2 0x12C2 DUP4 PUSH2 0xC72 JUMP JUMPDEST SWAP3 POP DUP3 PUSH2 0x12D2 JUMPI PUSH2 0x12D1 PUSH2 0x127D JUMP JUMPDEST JUMPDEST DUP3 DUP3 MOD SWAP1 POP SWAP3 SWAP2 POP POP JUMP JUMPDEST PUSH32 0x636F6D6D6974206475726174696F6E206973206E6F7420636C6F736564207965 PUSH1 0x0 DUP3 ADD MSTORE PUSH32 0x7400000000000000000000000000000000000000000000000000000000000000 PUSH1 0x20 DUP3 ADD MSTORE POP JUMP JUMPDEST PUSH1 0x0 PUSH2 0x1339 PUSH1 0x21 DUP4 PUSH2 0xF22 JUMP JUMPDEST SWAP2 POP PUSH2 0x1344 DUP3 PUSH2 0x12DD JUMP JUMPDEST PUSH1 0x40 DUP3 ADD SWAP1 POP SWAP2 SWAP1 POP JUMP JUMPDEST PUSH1 0x0 PUSH1 0x20 DUP3 ADD SWAP1 POP DUP2 DUP2 SUB PUSH1 0x0 DUP4 ADD MSTORE PUSH2 0x1368 DUP2 PUSH2 0x132C JUMP JUMPDEST SWAP1 POP SWAP2 SWAP1 POP JUMP JUMPDEST PUSH32 0x72657665616C206475726174696F6E20697320616C726561647920636C6F7365 PUSH1 0x0 DUP3 ADD MSTORE PUSH32 0x6400000000000000000000000000000000000000000000000000000000000000 PUSH1 0x20 DUP3 ADD MSTORE POP JUMP JUMPDEST PUSH1 0x0 PUSH2 0x13CB PUSH1 0x21 DUP4 PUSH2 0xF22 JUMP JUMPDEST SWAP2 POP PUSH2 0x13D6 DUP3 PUSH2 0x136F JUMP JUMPDEST PUSH1 0x40 DUP3 ADD SWAP1 POP SWAP2 SWAP1 POP JUMP JUMPDEST PUSH1 0x0 PUSH1 0x20 DUP3 ADD SWAP1 POP DUP2 DUP2 SUB PUSH1 0x0 DUP4 ADD MSTORE PUSH2 0x13FA DUP2 PUSH2 0x13BE JUMP JUMPDEST SWAP1 POP SWAP2 SWAP1 POP JUMP JUMPDEST PUSH32 0x596F7520616C72656164792072657665616C6564000000000000000000000000 PUSH1 0x0 DUP3 ADD MSTORE POP JUMP JUMPDEST PUSH1 0x0 PUSH2 0x1437 PUSH1 0x14 DUP4 PUSH2 0xF22 JUMP JUMPDEST SWAP2 POP PUSH2 0x1442 DUP3 PUSH2 0x1401 JUMP JUMPDEST PUSH1 0x20 DUP3 ADD SWAP1 POP SWAP2 SWAP1 POP JUMP JUMPDEST PUSH1 0x0 PUSH1 0x20 DUP3 ADD SWAP1 POP DUP2 DUP2 SUB PUSH1 0x0 DUP4 ADD MSTORE PUSH2 0x1466 DUP2 PUSH2 0x142A JUMP JUMPDEST SWAP1 POP SWAP2 SWAP1 POP JUMP JUMPDEST PUSH32 0x636F6D6D6974206E6F74206D6174636865730000000000000000000000000000 PUSH1 0x0 DUP3 ADD MSTORE POP JUMP JUMPDEST PUSH1 0x0 PUSH2 0x14A3 PUSH1 0x12 DUP4 PUSH2 0xF22 JUMP JUMPDEST SWAP2 POP PUSH2 0x14AE DUP3 PUSH2 0x146D JUMP JUMPDEST PUSH1 0x20 DUP3 ADD SWAP1 POP SWAP2 SWAP1 POP JUMP JUMPDEST PUSH1 0x0 PUSH1 0x20 DUP3 ADD SWAP1 POP DUP2 DUP2 SUB PUSH1 0x0 DUP4 ADD MSTORE PUSH2 0x14D2 DUP2 PUSH2 0x1496 JUMP JUMPDEST SWAP1 POP SWAP2 SWAP1 POP JUMP JUMPDEST PUSH1 0x0 DUP2 SWAP1 POP SWAP2 SWAP1 POP JUMP JUMPDEST PUSH2 0x14F4 PUSH2 0x14EF DUP3 PUSH2 0xCE1 JUMP JUMPDEST PUSH2 0x14D9 JUMP JUMPDEST DUP3 MSTORE POP POP JUMP JUMPDEST PUSH1 0x0 DUP2 SWAP1 POP SWAP2 SWAP1 POP JUMP JUMPDEST PUSH2 0x1515 PUSH2 0x1510 DUP3 PUSH2 0xC72 JUMP JUMPDEST PUSH2 0x14FA JUMP JUMPDEST DUP3 MSTORE POP POP JUMP JUMPDEST PUSH1 0x0 PUSH2 0x1527 DUP3 DUP6 PUSH2 0x14E3 JUMP JUMPDEST PUSH1 0x20 DUP3 ADD SWAP2 POP PUSH2 0x1537 DUP3 DUP5 PUSH2 0x1504 JUMP JUMPDEST PUSH1 0x20 DUP3 ADD SWAP2 POP DUP2 SWAP1 POP SWAP4 SWAP3 POP POP POP JUMP JUMPDEST PUSH1 0x0 DUP2 PUSH1 0x60 SHL SWAP1 POP SWAP2 SWAP1 POP JUMP JUMPDEST PUSH1 0x0 PUSH2 0x155F DUP3 PUSH2 0x1547 JUMP JUMPDEST SWAP1 POP SWAP2 SWAP1 POP JUMP JUMPDEST PUSH1 0x0 PUSH2 0x1571 DUP3 PUSH2 0x1554 JUMP JUMPDEST SWAP1 POP SWAP2 SWAP1 POP JUMP JUMPDEST PUSH2 0x1589 PUSH2 0x1584 DUP3 PUSH2 0xDBD JUMP JUMPDEST PUSH2 0x1566 JUMP JUMPDEST DUP3 MSTORE POP POP JUMP JUMPDEST PUSH1 0x0 PUSH2 0x159B DUP3 DUP6 PUSH2 0x1578 JUMP JUMPDEST PUSH1 0x14 DUP3 ADD SWAP2 POP PUSH2 0x15AB DUP3 DUP5 PUSH2 0x1504 JUMP JUMPDEST PUSH1 0x20 DUP3 ADD SWAP2 POP DUP2 SWAP1 POP SWAP4 SWAP3 POP POP POP JUMP INVALID LOG2 PUSH5 0x6970667358 0x22 SLT KECCAK256 0xD8 ADD 0x2B PUSH19 0x7E6A62EA8C22FF93083D22D34430B32201023B 0x23 PUSH7 0xAC305A63EE53F5 PUSH5 0x736F6C6343 STOP ADDMOD 0xF STOP CALLER "},"methodIdentifiers":{"DURATION()":"1be05289","commitCloses()":"bcef097e","commitments(address)":"e8fcf723","createCommitment(uint256)":"eb88d688","enter(bytes32)":"568ab21e","getBalance()":"12065fe0","isAlreadyRevealed()":"216af0b4","lotteryHistory(uint256)":"6d6fe230","lotteryId()":"e580f47b","pickWinner()":"5d495aea","players(uint256)":"f71d96cb","reveal(uint256)":"c2ca0ac5","revealCloses()":"4373fde5","winner()":"dfbf53ae","withdrawPrize()":"48d37a58"}}}}}